{
  "abi": [
    {
      "inputs": [],
      "name": "INITIAL_BALANCE",
      "outputs": [
        {
          "internalType": "uint256",
          "name": "",
          "type": "uint256"
        }
      ],
      "stateMutability": "view",
      "type": "function"
    },
    {
      "inputs": [],
      "name": "auctionCount",
      "outputs": [
        {
          "internalType": "uint256",
          "name": "",
          "type": "uint256"
        }
      ],
      "stateMutability": "view",
      "type": "function"
    },
    {
      "inputs": [
        {
          "internalType": "uint256",
          "name": "",
          "type": "uint256"
        }
      ],
      "name": "auctions",
      "outputs": [
        {
          "internalType": "address",
          "name": "seller",
          "type": "address"
        },
        {
          "internalType": "uint256",
          "name": "highestBid",
          "type": "uint256"
        },
        {
          "internalType": "address",
          "name": "highestBidder",
          "type": "address"
        },
        {
          "internalType": "bool",
          "name": "active",
          "type": "bool"
        }
      ],
      "stateMutability": "view",
      "type": "function"
    },
    {
      "inputs": [],
      "name": "createAuction",
      "outputs": [
        {
          "internalType": "uint256",
          "name": "",
          "type": "uint256"
        }
      ],
      "stateMutability": "nonpayable",
      "type": "function"
    },
    {
      "inputs": [
        {
          "internalType": "uint256",
          "name": "auctionId",
          "type": "uint256"
        }
      ],
      "name": "endAuction",
      "outputs": [],
      "stateMutability": "nonpayable",
      "type": "function"
    },
    {
      "inputs": [
        {
          "internalType": "address",
          "name": "user",
          "type": "address"
        }
      ],
      "name": "getBalance",
      "outputs": [
        {
          "internalType": "uint256",
          "name": "",
          "type": "uint256"
        }
      ],
      "stateMutability": "view",
      "type": "function"
    },
    {
      "inputs": [
        {
          "internalType": "uint256",
          "name": "auctionId",
          "type": "uint256"
        },
        {
          "internalType": "uint256",
          "name": "bidAmount",
          "type": "uint256"
        }
      ],
      "name": "placeBid",
      "outputs": [],
      "stateMutability": "nonpayable",
      "type": "function"
    }
  ],
  "bytecode": "6080604052348015600f57600080fd5b506106328061001f6000396000f3fe608060405234801561001057600080fd5b506004361061007d5760003560e01c806357c90de51161005b57806357c90de514610123578063b9a2de3a14610138578063f58114471461014b578063f8b2cb4f1461015357600080fd5b806314525bce146100825780632ad715731461009e578063571a26a0146100a7575b600080fd5b61008b6103e881565b6040519081526020015b60405180910390f35b61008b60035481565b6100ee6100b5366004610536565b60026020819052600091825260409091208054600182015491909201546001600160a01b0392831692811690600160a01b900460ff1684565b60405161009594939291906001600160a01b039485168152602081019390935292166040820152901515606082015260800190565b61013661013136600461054f565b610166565b005b610136610146366004610536565b6102f1565b61008b6103ea565b61008b610161366004610571565b610491565b61016e6104d6565b600082815260026020819052604090912090810154600160a01b900460ff166101ce5760405162461bcd60e51b815260206004820152600d60248201526c105d58dd1a5bdb88195b991959609a1b60448201526064015b60405180910390fd5b8060010154821161020f5760405162461bcd60e51b815260206004820152600b60248201526a42696420746f6f206c6f7760a81b60448201526064016101c5565b336000908152602081905260409020548211156102655760405162461bcd60e51b8152602060048201526014602482015273496e73756666696369656e742062616c616e636560601b60448201526064016101c5565b60028101546001600160a01b0316156102af57600181015460028201546001600160a01b0316600090815260208190526040812080549091906102a99084906105b7565b90915550505b33600090815260208190526040812080548492906102ce9084906105d0565b9091555050600181019190915560020180546001600160a01b0319163317905550565b6102f96104d6565b600081815260026020819052604090912090810154600160a01b900460ff166103555760405162461bcd60e51b815260206004820152600e60248201526d105b1c9958591e4818db1bdcd95960921b60448201526064016101c5565b80546001600160a01b031633146103a45760405162461bcd60e51b815260206004820152601360248201527213db9b1e481cd95b1b195c8818d85b88195b99606a1b60448201526064016101c5565b60028101805460ff60a01b19169055600181015481546001600160a01b0316600090815260208190526040812080549091906103e19084906105b7565b90915550505050565b60006103f46104d6565b60038054906000610404836105e3565b9091555050604080516080810182523381526000602080830182815283850183815260016060860181815260038054875260029586905297909520955186546001600160a01b039182166001600160a01b03199091161787559251908601555193909101805492511515600160a01b026001600160a81b0319909316939091169290921717905554919050565b6001600160a01b03811660009081526001602052604081205460ff166104ba57506103e8919050565b506001600160a01b031660009081526020819052604090205490565b6104df336104e1565b565b6001600160a01b03811660009081526001602052604090205460ff16610533576001600160a01b0381166000908152600160208181526040808420805460ff191690931790925582905290206103e890555b50565b60006020828403121561054857600080fd5b5035919050565b6000806040838503121561056257600080fd5b50508035926020909101359150565b60006020828403121561058357600080fd5b81356001600160a01b038116811461059a57600080fd5b9392505050565b634e487b7160e01b600052601160045260246000fd5b808201808211156105ca576105ca6105a1565b92915050565b818103818111156105ca576105ca6105a1565b6000600182016105f5576105f56105a1565b506001019056fea26469706673582212208ee99fd2d050f60c27850d708d1f9dc02ab5ab7bc3a14aa43ccedb22f9cefba364736f6c634300081e0033",
  "bytecodeSha1": "95fd301ab4fcd0cd966537a0659f6eae0c4d9704",
  "compiler": {
    "evm_version": "istanbul",
    "optimizer": {
      "enabled": true,
      "runs": 200
    },
    "version": "0.8.30+commit.73712a01"
  },
  "contractName": "Auction",
  "language": "Solidity",
  "natspec": {
    "kind": "dev",
    "methods": {},
    "version": 1
  },
  "opcodes": "PUSH1 0x80 PUSH1 0x40 MSTORE CALLVALUE DUP1 ISZERO PUSH2 0x10 JUMPI PUSH1 0x0 DUP1 REVERT JUMPDEST POP PUSH1 0x4 CALLDATASIZE LT PUSH2 0x7D JUMPI PUSH1 0x0 CALLDATALOAD PUSH1 0xE0 SHR DUP1 PUSH4 0x57C90DE5 GT PUSH2 0x5B JUMPI DUP1 PUSH4 0x57C90DE5 EQ PUSH2 0x123 JUMPI DUP1 PUSH4 0xB9A2DE3A EQ PUSH2 0x138 JUMPI DUP1 PUSH4 0xF5811447 EQ PUSH2 0x14B JUMPI DUP1 PUSH4 0xF8B2CB4F EQ PUSH2 0x153 JUMPI PUSH1 0x0 DUP1 REVERT JUMPDEST DUP1 PUSH4 0x14525BCE EQ PUSH2 0x82 JUMPI DUP1 PUSH4 0x2AD71573 EQ PUSH2 0x9E JUMPI DUP1 PUSH4 0x571A26A0 EQ PUSH2 0xA7 JUMPI JUMPDEST PUSH1 0x0 DUP1 REVERT JUMPDEST PUSH2 0x8B PUSH2 0x3E8 DUP2 JUMP JUMPDEST PUSH1 0x40 MLOAD SWAP1 DUP2 MSTORE PUSH1 0x20 ADD JUMPDEST PUSH1 0x40 MLOAD DUP1 SWAP2 SUB SWAP1 RETURN JUMPDEST PUSH2 0x8B PUSH1 0x3 SLOAD DUP2 JUMP JUMPDEST PUSH2 0xEE PUSH2 0xB5 CALLDATASIZE PUSH1 0x4 PUSH2 0x536 JUMP JUMPDEST PUSH1 0x2 PUSH1 0x20 DUP2 SWAP1 MSTORE PUSH1 0x0 SWAP2 DUP3 MSTORE PUSH1 0x40 SWAP1 SWAP2 KECCAK256 DUP1 SLOAD PUSH1 0x1 DUP3 ADD SLOAD SWAP2 SWAP1 SWAP3 ADD SLOAD PUSH1 0x1 PUSH1 0x1 PUSH1 0xA0 SHL SUB SWAP3 DUP4 AND SWAP3 DUP2 AND SWAP1 PUSH1 0x1 PUSH1 0xA0 SHL SWAP1 DIV PUSH1 0xFF AND DUP5 JUMP JUMPDEST PUSH1 0x40 MLOAD PUSH2 0x95 SWAP5 SWAP4 SWAP3 SWAP2 SWAP1 PUSH1 0x1 PUSH1 0x1 PUSH1 0xA0 SHL SUB SWAP5 DUP6 AND DUP2 MSTORE PUSH1 0x20 DUP2 ADD SWAP4 SWAP1 SWAP4 MSTORE SWAP3 AND PUSH1 0x40 DUP3 ADD MSTORE SWAP1 ISZERO ISZERO PUSH1 0x60 DUP3 ADD MSTORE PUSH1 0x80 ADD SWAP1 JUMP JUMPDEST PUSH2 0x136 PUSH2 0x131 CALLDATASIZE PUSH1 0x4 PUSH2 0x54F JUMP JUMPDEST PUSH2 0x166 JUMP JUMPDEST STOP JUMPDEST PUSH2 0x136 PUSH2 0x146 CALLDATASIZE PUSH1 0x4 PUSH2 0x536 JUMP JUMPDEST PUSH2 0x2F1 JUMP JUMPDEST PUSH2 0x8B PUSH2 0x3EA JUMP JUMPDEST PUSH2 0x8B PUSH2 0x161 CALLDATASIZE PUSH1 0x4 PUSH2 0x571 JUMP JUMPDEST PUSH2 0x491 JUMP JUMPDEST PUSH2 0x16E PUSH2 0x4D6 JUMP JUMPDEST PUSH1 0x0 DUP3 DUP2 MSTORE PUSH1 0x2 PUSH1 0x20 DUP2 SWAP1 MSTORE PUSH1 0x40 SWAP1 SWAP2 KECCAK256 SWAP1 DUP2 ADD SLOAD PUSH1 0x1 PUSH1 0xA0 SHL SWAP1 DIV PUSH1 0xFF AND PUSH2 0x1CE JUMPI PUSH1 0x40 MLOAD PUSH3 0x461BCD PUSH1 0xE5 SHL DUP2 MSTORE PUSH1 0x20 PUSH1 0x4 DUP3 ADD MSTORE PUSH1 0xD PUSH1 0x24 DUP3 ADD MSTORE PUSH13 0x105D58DD1A5BDB88195B991959 PUSH1 0x9A SHL PUSH1 0x44 DUP3 ADD MSTORE PUSH1 0x64 ADD JUMPDEST PUSH1 0x40 MLOAD DUP1 SWAP2 SUB SWAP1 REVERT JUMPDEST DUP1 PUSH1 0x1 ADD SLOAD DUP3 GT PUSH2 0x20F JUMPI PUSH1 0x40 MLOAD PUSH3 0x461BCD PUSH1 0xE5 SHL DUP2 MSTORE PUSH1 0x20 PUSH1 0x4 DUP3 ADD MSTORE PUSH1 0xB PUSH1 0x24 DUP3 ADD MSTORE PUSH11 0x42696420746F6F206C6F77 PUSH1 0xA8 SHL PUSH1 0x44 DUP3 ADD MSTORE PUSH1 0x64 ADD PUSH2 0x1C5 JUMP JUMPDEST CALLER PUSH1 0x0 SWAP1 DUP2 MSTORE PUSH1 0x20 DUP2 SWAP1 MSTORE PUSH1 0x40 SWAP1 KECCAK256 SLOAD DUP3 GT ISZERO PUSH2 0x265 JUMPI PUSH1 0x40 MLOAD PUSH3 0x461BCD PUSH1 0xE5 SHL DUP2 MSTORE PUSH1 0x20 PUSH1 0x4 DUP3 ADD MSTORE PUSH1 0x14 PUSH1 0x24 DUP3 ADD MSTORE PUSH20 0x496E73756666696369656E742062616C616E6365 PUSH1 0x60 SHL PUSH1 0x44 DUP3 ADD MSTORE PUSH1 0x64 ADD PUSH2 0x1C5 JUMP JUMPDEST PUSH1 0x2 DUP2 ADD SLOAD PUSH1 0x1 PUSH1 0x1 PUSH1 0xA0 SHL SUB AND ISZERO PUSH2 0x2AF JUMPI PUSH1 0x1 DUP2 ADD SLOAD PUSH1 0x2 DUP3 ADD SLOAD PUSH1 0x1 PUSH1 0x1 PUSH1 0xA0 SHL SUB AND PUSH1 0x0 SWAP1 DUP2 MSTORE PUSH1 0x20 DUP2 SWAP1 MSTORE PUSH1 0x40 DUP2 KECCAK256 DUP1 SLOAD SWAP1 SWAP2 SWAP1 PUSH2 0x2A9 SWAP1 DUP5 SWAP1 PUSH2 0x5B7 JUMP JUMPDEST SWAP1 SWAP2 SSTORE POP POP JUMPDEST CALLER PUSH1 0x0 SWAP1 DUP2 MSTORE PUSH1 0x20 DUP2 SWAP1 MSTORE PUSH1 0x40 DUP2 KECCAK256 DUP1 SLOAD DUP5 SWAP3 SWAP1 PUSH2 0x2CE SWAP1 DUP5 SWAP1 PUSH2 0x5D0 JUMP JUMPDEST SWAP1 SWAP2 SSTORE POP POP PUSH1 0x1 DUP2 ADD SWAP2 SWAP1 SWAP2 SSTORE PUSH1 0x2 ADD DUP1 SLOAD PUSH1 0x1 PUSH1 0x1 PUSH1 0xA0 SHL SUB NOT AND CALLER OR SWAP1 SSTORE POP JUMP JUMPDEST PUSH2 0x2F9 PUSH2 0x4D6 JUMP JUMPDEST PUSH1 0x0 DUP2 DUP2 MSTORE PUSH1 0x2 PUSH1 0x20 DUP2 SWAP1 MSTORE PUSH1 0x40 SWAP1 SWAP2 KECCAK256 SWAP1 DUP2 ADD SLOAD PUSH1 0x1 PUSH1 0xA0 SHL SWAP1 DIV PUSH1 0xFF AND PUSH2 0x355 JUMPI PUSH1 0x40 MLOAD PUSH3 0x461BCD PUSH1 0xE5 SHL DUP2 MSTORE PUSH1 0x20 PUSH1 0x4 DUP3 ADD MSTORE PUSH1 0xE PUSH1 0x24 DUP3 ADD MSTORE PUSH14 0x105B1C9958591E4818DB1BDCD959 PUSH1 0x92 SHL PUSH1 0x44 DUP3 ADD MSTORE PUSH1 0x64 ADD PUSH2 0x1C5 JUMP JUMPDEST DUP1 SLOAD PUSH1 0x1 PUSH1 0x1 PUSH1 0xA0 SHL SUB AND CALLER EQ PUSH2 0x3A4 JUMPI PUSH1 0x40 MLOAD PUSH3 0x461BCD PUSH1 0xE5 SHL DUP2 MSTORE PUSH1 0x20 PUSH1 0x4 DUP3 ADD MSTORE PUSH1 0x13 PUSH1 0x24 DUP3 ADD MSTORE PUSH19 0x13DB9B1E481CD95B1B195C8818D85B88195B99 PUSH1 0x6A SHL PUSH1 0x44 DUP3 ADD MSTORE PUSH1 0x64 ADD PUSH2 0x1C5 JUMP JUMPDEST PUSH1 0x2 DUP2 ADD DUP1 SLOAD PUSH1 0xFF PUSH1 0xA0 SHL NOT AND SWAP1 SSTORE PUSH1 0x1 DUP2 ADD SLOAD DUP2 SLOAD PUSH1 0x1 PUSH1 0x1 PUSH1 0xA0 SHL SUB AND PUSH1 0x0 SWAP1 DUP2 MSTORE PUSH1 0x20 DUP2 SWAP1 MSTORE PUSH1 0x40 DUP2 KECCAK256 DUP1 SLOAD SWAP1 SWAP2 SWAP1 PUSH2 0x3E1 SWAP1 DUP5 SWAP1 PUSH2 0x5B7 JUMP JUMPDEST SWAP1 SWAP2 SSTORE POP POP POP POP JUMP JUMPDEST PUSH1 0x0 PUSH2 0x3F4 PUSH2 0x4D6 JUMP JUMPDEST PUSH1 0x3 DUP1 SLOAD SWAP1 PUSH1 0x0 PUSH2 0x404 DUP4 PUSH2 0x5E3 JUMP JUMPDEST SWAP1 SWAP2 SSTORE POP POP PUSH1 0x40 DUP1 MLOAD PUSH1 0x80 DUP2 ADD DUP3 MSTORE CALLER DUP2 MSTORE PUSH1 0x0 PUSH1 0x20 DUP1 DUP4 ADD DUP3 DUP2 MSTORE DUP4 DUP6 ADD DUP4 DUP2 MSTORE PUSH1 0x1 PUSH1 0x60 DUP7 ADD DUP2 DUP2 MSTORE PUSH1 0x3 DUP1 SLOAD DUP8 MSTORE PUSH1 0x2 SWAP6 DUP7 SWAP1 MSTORE SWAP8 SWAP1 SWAP6 KECCAK256 SWAP6 MLOAD DUP7 SLOAD PUSH1 0x1 PUSH1 0x1 PUSH1 0xA0 SHL SUB SWAP2 DUP3 AND PUSH1 0x1 PUSH1 0x1 PUSH1 0xA0 SHL SUB NOT SWAP1 SWAP2 AND OR DUP8 SSTORE SWAP3 MLOAD SWAP1 DUP7 ADD SSTORE MLOAD SWAP4 SWAP1 SWAP2 ADD DUP1 SLOAD SWAP3 MLOAD ISZERO ISZERO PUSH1 0x1 PUSH1 0xA0 SHL MUL PUSH1 0x1 PUSH1 0x1 PUSH1 0xA8 SHL SUB NOT SWAP1 SWAP4 AND SWAP4 SWAP1 SWAP2 AND SWAP3 SWAP1 SWAP3 OR OR SWAP1 SSTORE SLOAD SWAP2 SWAP1 POP JUMP JUMPDEST PUSH1 0x1 PUSH1 0x1 PUSH1 0xA0 SHL SUB DUP2 AND PUSH1 0x0 SWAP1 DUP2 MSTORE PUSH1 0x1 PUSH1 0x20 MSTORE PUSH1 0x40 DUP2 KECCAK256 SLOAD PUSH1 0xFF AND PUSH2 0x4BA JUMPI POP PUSH2 0x3E8 SWAP2 SWAP1 POP JUMP JUMPDEST POP PUSH1 0x1 PUSH1 0x1 PUSH1 0xA0 SHL SUB AND PUSH1 0x0 SWAP1 DUP2 MSTORE PUSH1 0x20 DUP2 SWAP1 MSTORE PUSH1 0x40 SWAP1 KECCAK256 SLOAD SWAP1 JUMP JUMPDEST PUSH2 0x4DF CALLER PUSH2 0x4E1 JUMP JUMPDEST JUMP JUMPDEST PUSH1 0x1 PUSH1 0x1 PUSH1 0xA0 SHL SUB DUP2 AND PUSH1 0x0 SWAP1 DUP2 MSTORE PUSH1 0x1 PUSH1 0x20 MSTORE PUSH1 0x40 SWAP1 KECCAK256 SLOAD PUSH1 0xFF AND PUSH2 0x533 JUMPI PUSH1 0x1 PUSH1 0x1 PUSH1 0xA0 SHL SUB DUP2 AND PUSH1 0x0 SWAP1 DUP2 MSTORE PUSH1 0x1 PUSH1 0x20 DUP2 DUP2 MSTORE PUSH1 0x40 DUP1 DUP5 KECCAK256 DUP1 SLOAD PUSH1 0xFF NOT AND SWAP1 SWAP4 OR SWAP1 SWAP3 SSTORE DUP3 SWAP1 MSTORE SWAP1 KECCAK256 PUSH2 0x3E8 SWAP1 SSTORE JUMPDEST POP JUMP JUMPDEST PUSH1 0x0 PUSH1 0x20 DUP3 DUP5 SUB SLT ISZERO PUSH2 0x548 JUMPI PUSH1 0x0 DUP1 REVERT JUMPDEST POP CALLDATALOAD SWAP2 SWAP1 POP JUMP JUMPDEST PUSH1 0x0 DUP1 PUSH1 0x40 DUP4 DUP6 SUB SLT ISZERO PUSH2 0x562 JUMPI PUSH1 0x0 DUP1 REVERT JUMPDEST POP POP DUP1 CALLDATALOAD SWAP3 PUSH1 0x20 SWAP1 SWAP2 ADD CALLDATALOAD SWAP2 POP JUMP JUMPDEST PUSH1 0x0 PUSH1 0x20 DUP3 DUP5 SUB SLT ISZERO PUSH2 0x583 JUMPI PUSH1 0x0 DUP1 REVERT JUMPDEST DUP2 CALLDATALOAD PUSH1 0x1 PUSH1 0x1 PUSH1 0xA0 SHL SUB DUP2 AND DUP2 EQ PUSH2 0x59A JUMPI PUSH1 0x0 DUP1 REVERT JUMPDEST SWAP4 SWAP3 POP POP POP JUMP JUMPDEST PUSH4 0x4E487B71 PUSH1 0xE0 SHL PUSH1 0x0 MSTORE PUSH1 0x11 PUSH1 0x4 MSTORE PUSH1 0x24 PUSH1 0x0 REVERT JUMPDEST DUP1 DUP3 ADD DUP1 DUP3 GT ISZERO PUSH2 0x5CA JUMPI PUSH2 0x5CA PUSH2 0x5A1 JUMP JUMPDEST SWAP3 SWAP2 POP POP JUMP JUMPDEST DUP2 DUP2 SUB DUP2 DUP2 GT ISZERO PUSH2 0x5CA JUMPI PUSH2 0x5CA PUSH2 0x5A1 JUMP JUMPDEST PUSH1 0x0 PUSH1 0x1 DUP3 ADD PUSH2 0x5F5 JUMPI PUSH2 0x5F5 PUSH2 0x5A1 JUMP JUMPDEST POP PUSH1 0x1 ADD SWAP1 JUMP INVALID LOG2 PUSH5 0x6970667358 0x22 SLT KECCAK256 DUP15 0xE9 SWAP16 0xD2 0xD0 POP 0xF6 0xC 0x27 DUP6 0xD PUSH17 0x8D1F9DC02AB5AB7BC3A14AA43CCEDB22F9 0xCE EXTSTATICCALL LOG3 PUSH5 0x736F6C6343 STOP ADDMOD 0x1E STOP CALLER ",
  "sha1": "57be5a36bd417f75e5ecf202dcdd519ba97bf6a8",
  "source": "pragma solidity ^0.8.10;\n\nimport \"../interfaces/IAuction.sol\";\nimport \"./Balances.sol\";\n\ncontract Auction is IAuction, Balances {\n\n    struct AuctionInfo {\n        address seller;\n        uint highestBid;\n        address highestBidder;\n        bool active;\n    }\n\n    mapping(uint => AuctionInfo) public auctions;\n    uint public auctionCount;\n\n    function createAuction() external override returns (uint) {\n        initUser();\n\n        auctionCount++;\n        auctions[auctionCount] = AuctionInfo({\n            seller: msg.sender,\n            highestBid: 0,\n            highestBidder: address(0),\n            active: true\n        });\n        return auctionCount;\n    }\n\n    function placeBid(uint auctionId, uint bidAmount) external override {\n        initUser();\n\n        AuctionInfo storage auction = auctions[auctionId];\n\n        require(auction.active, \"Auction ended\");\n        require(bidAmount > auction.highestBid, \"Bid too low\");\n        require(balances[msg.sender] >= bidAmount, \"Insufficient balance\");\n\n\n        if (auction.highestBidder != address(0)) {\n            balances[auction.highestBidder] += auction.highestBid;\n        }\n\n        balances[msg.sender] -= bidAmount;\n\n        auction.highestBid = bidAmount;\n        auction.highestBidder = msg.sender;\n    }\n\n    function endAuction(uint auctionId) external override {\n        initUser();\n\n        AuctionInfo storage auction = auctions[auctionId];\n\n        require(auction.active, \"Already closed\");\n        require(msg.sender == auction.seller, \"Only seller can end\");\n\n        auction.active = false;\n\n        balances[auction.seller] += auction.highestBid;\n    }\n}\n",
  "sourcePath": "contracts/Auction.sol",
  "type": "contract"
}