{
  "abi": [
    {
      "inputs": [],
      "name": "INITIAL_BALANCE",
      "outputs": [
        {
          "internalType": "uint256",
          "name": "",
          "type": "uint256"
        }
      ],
      "stateMutability": "view",
      "type": "function"
    },
    {
      "inputs": [
        {
          "internalType": "address",
          "name": "user",
          "type": "address"
        }
      ],
      "name": "getBalance",
      "outputs": [
        {
          "internalType": "uint256",
          "name": "",
          "type": "uint256"
        }
      ],
      "stateMutability": "view",
      "type": "function"
    }
  ],
  "bytecode": "6080604052348015600f57600080fd5b506101048061001f6000396000f3fe6080604052348015600f57600080fd5b506004361060325760003560e01c806314525bce146037578063f8b2cb4f146051575b600080fd5b603f6103e881565b60405190815260200160405180910390f35b603f605c36600460a0565b6001600160a01b03811660009081526001602052604081205460ff16608457506103e8919050565b506001600160a01b031660009081526020819052604090205490565b60006020828403121560b157600080fd5b81356001600160a01b038116811460c757600080fd5b939250505056fea2646970667358221220b21b63e0d18b80b60e99d7693303f8531203a793a465d4b7ebc66941ad8e1de964736f6c634300081e0033",
  "bytecodeSha1": "8f9ba69f11046f675790c15e10cf8926d3bfb64d",
  "compiler": {
    "evm_version": "istanbul",
    "optimizer": {
      "enabled": true,
      "runs": 200
    },
    "version": "0.8.30+commit.73712a01"
  },
  "contractName": "Balances",
  "language": "Solidity",
  "natspec": {
    "kind": "dev",
    "methods": {},
    "version": 1
  },
  "opcodes": "PUSH1 0x80 PUSH1 0x40 MSTORE CALLVALUE DUP1 ISZERO PUSH1 0xF JUMPI PUSH1 0x0 DUP1 REVERT JUMPDEST POP PUSH1 0x4 CALLDATASIZE LT PUSH1 0x32 JUMPI PUSH1 0x0 CALLDATALOAD PUSH1 0xE0 SHR DUP1 PUSH4 0x14525BCE EQ PUSH1 0x37 JUMPI DUP1 PUSH4 0xF8B2CB4F EQ PUSH1 0x51 JUMPI JUMPDEST PUSH1 0x0 DUP1 REVERT JUMPDEST PUSH1 0x3F PUSH2 0x3E8 DUP2 JUMP JUMPDEST PUSH1 0x40 MLOAD SWAP1 DUP2 MSTORE PUSH1 0x20 ADD PUSH1 0x40 MLOAD DUP1 SWAP2 SUB SWAP1 RETURN JUMPDEST PUSH1 0x3F PUSH1 0x5C CALLDATASIZE PUSH1 0x4 PUSH1 0xA0 JUMP JUMPDEST PUSH1 0x1 PUSH1 0x1 PUSH1 0xA0 SHL SUB DUP2 AND PUSH1 0x0 SWAP1 DUP2 MSTORE PUSH1 0x1 PUSH1 0x20 MSTORE PUSH1 0x40 DUP2 KECCAK256 SLOAD PUSH1 0xFF AND PUSH1 0x84 JUMPI POP PUSH2 0x3E8 SWAP2 SWAP1 POP JUMP JUMPDEST POP PUSH1 0x1 PUSH1 0x1 PUSH1 0xA0 SHL SUB AND PUSH1 0x0 SWAP1 DUP2 MSTORE PUSH1 0x20 DUP2 SWAP1 MSTORE PUSH1 0x40 SWAP1 KECCAK256 SLOAD SWAP1 JUMP JUMPDEST PUSH1 0x0 PUSH1 0x20 DUP3 DUP5 SUB SLT ISZERO PUSH1 0xB1 JUMPI PUSH1 0x0 DUP1 REVERT JUMPDEST DUP2 CALLDATALOAD PUSH1 0x1 PUSH1 0x1 PUSH1 0xA0 SHL SUB DUP2 AND DUP2 EQ PUSH1 0xC7 JUMPI PUSH1 0x0 DUP1 REVERT JUMPDEST SWAP4 SWAP3 POP POP POP JUMP INVALID LOG2 PUSH5 0x6970667358 0x22 SLT KECCAK256 0xB2 SHL PUSH4 0xE0D18B80 0xB6 0xE SWAP10 0xD7 PUSH10 0x3303F8531203A793A465 0xD4 0xB7 0xEB 0xC6 PUSH10 0x41AD8E1DE964736F6C63 NUMBER STOP ADDMOD 0x1E STOP CALLER ",
  "sha1": "9b4deb1475cdb05400dad52e03bd42302d7a2a24",
  "source": "// SPDX-License-Identifier: MIT\npragma solidity ^0.8.10;\n\nimport \"../interfaces/IBalances.sol\";\n\ncontract Balances is IBalances {\n    mapping(address => uint256) internal balances;\n    mapping(address => bool) internal initialized;\n\n    uint256 public constant INITIAL_BALANCE = 1000;\n\n    function _ensureInit(address user) internal {\n        if (!initialized[user]) {\n            initialized[user] = true;\n            balances[user] = INITIAL_BALANCE;\n        }\n    }\n\n    function initUser() internal {\n        _ensureInit(msg.sender);\n    }\n\n\n    function getBalance(address user) external view override returns (uint256) {\n\n        if (!initialized[user]) {\n            return INITIAL_BALANCE;\n        }\n        return balances[user];\n    }\n}\n",
  "sourcePath": "contracts/Balances.sol",
  "type": "contract"
}