{"abi":[{"anonymous":false,"inputs":[{"indexed":true,"internalType":"uint256","name":"auctionId","type":"uint256"},{"indexed":false,"internalType":"string","name":"description","type":"string"},{"indexed":false,"internalType":"uint256","name":"closeDate","type":"uint256"},{"indexed":false,"internalType":"uint256","name":"minBid","type":"uint256"}],"name":"AuctionCreated","type":"event"},{"anonymous":false,"inputs":[{"indexed":true,"internalType":"uint256","name":"auctionId","type":"uint256"},{"indexed":false,"internalType":"address","name":"winner","type":"address"},{"indexed":false,"internalType":"uint256","name":"amount","type":"uint256"}],"name":"AuctionEnded","type":"event"},{"anonymous":false,"inputs":[{"indexed":true,"internalType":"uint256","name":"auctionId","type":"uint256"},{"indexed":false,"internalType":"uint256","name":"amount","type":"uint256"},{"indexed":false,"internalType":"uint256","name":"bidTimestamp","type":"uint256"}],"name":"NewBid","type":"event"},{"inputs":[],"name":"INITIAL_BALANCE","outputs":[{"internalType":"uint256","name":"","type":"uint256"}],"stateMutability":"view","type":"function"},{"inputs":[],"name":"auctionCount","outputs":[{"internalType":"uint256","name":"","type":"uint256"}],"stateMutability":"view","type":"function"},{"inputs":[{"internalType":"uint256","name":"","type":"uint256"}],"name":"auctions","outputs":[{"internalType":"address","name":"seller","type":"address"},{"internalType":"string","name":"description","type":"string"},{"internalType":"uint256","name":"minBid","type":"uint256"},{"internalType":"uint256","name":"closeDate","type":"uint256"},{"internalType":"uint256","name":"highestBid","type":"uint256"},{"internalType":"address","name":"highestBidder","type":"address"},{"internalType":"bool","name":"active","type":"bool"},{"internalType":"uint256","name":"createdAt","type":"uint256"},{"internalType":"uint256","name":"highestBidTimestamp","type":"uint256"},{"internalType":"uint256","name":"endedAt","type":"uint256"}],"stateMutability":"view","type":"function"},{"inputs":[{"internalType":"string","name":"_desc","type":"string"},{"internalType":"uint256","name":"_duration","type":"uint256"},{"internalType":"uint256","name":"_minBid","type":"uint256"}],"name":"createAuction","outputs":[{"internalType":"uint256","name":"","type":"uint256"}],"stateMutability":"nonpayable","type":"function"},{"inputs":[{"internalType":"uint256","name":"auctionId","type":"uint256"}],"name":"endAuction","outputs":[],"stateMutability":"nonpayable","type":"function"},{"inputs":[{"internalType":"uint256","name":"auctionId","type":"uint256"}],"name":"getAuctionDuration","outputs":[{"internalType":"uint256","name":"","type":"uint256"}],"stateMutability":"view","type":"function"},{"inputs":[{"internalType":"uint256","name":"auctionId","type":"uint256"}],"name":"getAuctionTimes","outputs":[{"internalType":"uint256","name":"createdAt","type":"uint256"},{"internalType":"uint256","name":"closeDate","type":"uint256"},{"internalType":"uint256","name":"highestBidTimestamp","type":"uint256"},{"internalType":"uint256","name":"endedAt","type":"uint256"}],"stateMutability":"view","type":"function"},{"inputs":[{"internalType":"address","name":"user","type":"address"}],"name":"getBalance","outputs":[{"internalType":"uint256","name":"","type":"uint256"}],"stateMutability":"view","type":"function"},{"inputs":[{"internalType":"uint256","name":"auctionId","type":"uint256"}],"name":"getRealAuctionDuration","outputs":[{"internalType":"uint256","name":"","type":"uint256"}],"stateMutability":"view","type":"function"},{"inputs":[{"internalType":"uint256","name":"auctionId","type":"uint256"},{"internalType":"uint256","name":"bidAmount","type":"uint256"},{"internalType":"uint256","name":"tsaTimestamp","type":"uint256"}],"name":"placeBid","outputs":[],"stateMutability":"nonpayable","type":"function"}],"bytecode":"6080604052348015600f57600080fd5b50610ee68061001f6000396000f3fe608060405234801561001057600080fd5b506004361061009e5760003560e01c80636739f3a4116100665780636739f3a414610119578063b9a2de3a1461012c578063c162a6e91461013f578063f6cf5d7d14610152578063f8b2cb4f1461018557600080fd5b806314525bce146100a35780632ad71573146100bf5780632dbddb41146100c8578063571a26a0146100db5780635e62be2514610104575b600080fd5b6100ac6103e881565b6040519081526020015b60405180910390f35b6100ac60035481565b6100ac6100d6366004610ace565b610198565b6100ee6100e9366004610b95565b610323565b6040516100b69a99989796959493929190610bf4565b610117610112366004610c63565b610414565b005b6100ac610127366004610b95565b610704565b61011761013a366004610b95565b610750565b6100ac61014d366004610b95565b6108c0565b610165610160366004610b95565b610925565b6040805194855260208501939093529183015260608201526080016100b6565b6100ac610193366004610c8f565b610981565b60006101a26109c6565b600380549060006101b283610cce565b9091555042905060006101c58583610ce7565b604080516101408101825233815260208082018a81528284018990526060830185905260006080840181905260a08401819052600160c0850181905260e08501899052610100850182905261012085018290526003548252600290935293909320825181546001600160a01b0319166001600160a01b0390911617815592519394509092908201906102579082610d89565b50604082810151600283015560608301516003808401919091556080840151600484015560a084015160058401805460c08701511515600160a01b026001600160a81b03199091166001600160a01b039093169290921791909117905560e08401516006840155610100840151600784015561012090930151600890920191909155905490517f5bf34ed94988e5dcdc7d1faaa54eb1d3b55f45d5f11457e235afb21a8ebbe73c9061030e90899085908990610e48565b60405180910390a25050600354949350505050565b600260205260009081526040902080546001820180546001600160a01b03909216929161034f90610d00565b80601f016020809104026020016040519081016040528092919081815260200182805461037b90610d00565b80156103c85780601f1061039d576101008083540402835291602001916103c8565b820191906000526020600020905b8154815290600101906020018083116103ab57829003601f168201915b505050506002830154600384015460048501546005860154600687015460078801546008909801549697949693955091936001600160a01b03821693600160a01b90920460ff1692918a565b61041c6109c6565b60008381526002602052604090206005810154600160a01b900460ff166104825760405162461bcd60e51b8152602060048201526015602482015274105d58dd1a5bdb88185b1c9958591e48195b991959605a1b60448201526064015b60405180910390fd5b806003015442106104cc5760405162461bcd60e51b8152602060048201526014602482015273105d58dd1a5bdb881d1a5b5948195e1c1a5c995960621b6044820152606401610479565b80546001600160a01b0316330361052f5760405162461bcd60e51b815260206004820152602160248201527f53656c6c65722063616e6e6f7420626964206f6e206f776e2061756374696f6e6044820152601760f91b6064820152608401610479565b80600201548310156105835760405162461bcd60e51b815260206004820152601760248201527f4269642062656c6f77206d696e696d756d2070726963650000000000000000006044820152606401610479565b336000908152602081905260409020548311156105d95760405162461bcd60e51b8152602060048201526014602482015273496e73756666696369656e742062616c616e636560601b6044820152606401610479565b60058101546001600160a01b03166105fb576105f68184846109d1565b6106c3565b8060040154831115610612576105f68184846109d1565b8060040154830361067b57806007015482106106705760405162461bcd60e51b815260206004820152601860248201527f426964206c6f7365732074696d65207469652d627265616b00000000000000006044820152606401610479565b6105f68184846109d1565b60405162461bcd60e51b815260206004820152601960248201527f4269642062656c6f772063757272656e742068696768657374000000000000006044820152606401610479565b604080518481526020810184905285917f89571710d252c0223f504495e5d86d92b91dfc3ea2ef941f3fc7866a726cd043910160405180910390a250505050565b6000818152600260205260408120600681015482036107355760405162461bcd60e51b815260040161047990610e6d565b806006015481600301546107499190610e9d565b9392505050565b600081815260026020526040902080546001600160a01b031633146107c55760405162461bcd60e51b815260206004820152602560248201527f4f6e6c79207468652073656c6c65722063616e20636c6f73652074686520617560448201526431ba34b7b760d91b6064820152608401610479565b6005810154600160a01b900460ff166108195760405162461bcd60e51b8152602060048201526016602482015275105d58dd1a5bdb88185b1c9958591e4818db1bdcd95960521b6044820152606401610479565b60058101805460ff60a01b1916905542600882015560048101541561086c57600481015481546001600160a01b031660009081526020819052604081208054909190610866908490610ce7565b90915550505b60058101546004820154604080516001600160a01b039093168352602083019190915283917fd2aa34a4fdbbc6dff6a3e56f46e0f3ae2a31d7785ff3487aa5c95c642acea501910160405180910390a25050565b6000818152600260205260408120600681015482036108f15760405162461bcd60e51b815260040161047990610e6d565b60008160080154600003610905574261090b565b81600801545b905081600601548161091d9190610e9d565b949350505050565b6000818152600260205260408120600681015482918291829190820361095d5760405162461bcd60e51b815260040161047990610e6d565b80600601548160030154826007015483600801549450945094509450509193509193565b6001600160a01b03811660009081526001602052604081205460ff166109aa57506103e8919050565b506001600160a01b031660009081526020819052604090205490565b6109cf33610a63565b565b60058301546001600160a01b031615610a1b57600483015460058401546001600160a01b031660009081526020819052604081208054909190610a15908490610ce7565b90915550505b3360009081526020819052604081208054849290610a3a908490610e9d565b909155505060048301919091556005820180546001600160a01b03191633179055600790910155565b6001600160a01b03811660009081526001602052604090205460ff16610ab5576001600160a01b0381166000908152600160208181526040808420805460ff191690931790925582905290206103e890555b50565b634e487b7160e01b600052604160045260246000fd5b600080600060608486031215610ae357600080fd5b833567ffffffffffffffff811115610afa57600080fd5b8401601f81018613610b0b57600080fd5b803567ffffffffffffffff811115610b2557610b25610ab8565b604051601f8201601f19908116603f0116810167ffffffffffffffff81118282101715610b5457610b54610ab8565b604052818152828201602001881015610b6c57600080fd5b816020840160208301376000602092820183015297908601359650604090950135949350505050565b600060208284031215610ba757600080fd5b5035919050565b6000815180845260005b81811015610bd457602081850181015186830182015201610bb8565b506000602082860101526020601f19601f83011685010191505092915050565b6001600160a01b038b16815261014060208201819052600090610c199083018c610bae565b604083019a909a5250606081019790975260808701959095526001600160a01b039390931660a086015290151560c085015260e08401526101008301526101209091015292915050565b600080600060608486031215610c7857600080fd5b505081359360208301359350604090920135919050565b600060208284031215610ca157600080fd5b81356001600160a01b038116811461074957600080fd5b634e487b7160e01b600052601160045260246000fd5b600060018201610ce057610ce0610cb8565b5060010190565b80820180821115610cfa57610cfa610cb8565b92915050565b600181811c90821680610d1457607f821691505b602082108103610d3457634e487b7160e01b600052602260045260246000fd5b50919050565b601f821115610d8457806000526020600020601f840160051c81016020851015610d615750805b601f840160051c820191505b81811015610d815760008155600101610d6d565b50505b505050565b815167ffffffffffffffff811115610da357610da3610ab8565b610db781610db18454610d00565b84610d3a565b6020601f821160018114610deb5760008315610dd35750848201515b600019600385901b1c1916600184901b178455610d81565b600084815260208120601f198516915b82811015610e1b5787850151825560209485019460019092019101610dfb565b5084821015610e395786840151600019600387901b60f8161c191681555b50505050600190811b01905550565b606081526000610e5b6060830186610bae565b60208301949094525060400152919050565b602080825260169082015275105d58dd1a5bdb88191bd95cc81b9bdd08195e1a5cdd60521b604082015260600190565b81810381811115610cfa57610cfa610cb856fea26469706673582212205bb28e73005dfc17c5ba4137186f1494529dcb1ee05696811ff0a7981a40fef064736f6c634300081e0033","bytecodeSha1":"35a718c6af6306bd1fd6814914f184aa7bc10fc0","compiler":{"evm_version":"istanbul","optimizer":{"enabled":true,"runs":200},"version":"0.8.30+commit.73712a01"},"contractName":"Auction","language":"Solidity","natspec":{"kind":"dev","methods":{},"version":1},"opcodes":"PUSH1 0x80 PUSH1 0x40 MSTORE CALLVALUE DUP1 ISZERO PUSH2 0x10 JUMPI PUSH1 0x0 DUP1 REVERT JUMPDEST POP PUSH1 0x4 CALLDATASIZE LT PUSH2 0x9E JUMPI PUSH1 0x0 CALLDATALOAD PUSH1 0xE0 SHR DUP1 PUSH4 0x6739F3A4 GT PUSH2 0x66 JUMPI DUP1 PUSH4 0x6739F3A4 EQ PUSH2 0x119 JUMPI DUP1 PUSH4 0xB9A2DE3A EQ PUSH2 0x12C JUMPI DUP1 PUSH4 0xC162A6E9 EQ PUSH2 0x13F JUMPI DUP1 PUSH4 0xF6CF5D7D EQ PUSH2 0x152 JUMPI DUP1 PUSH4 0xF8B2CB4F EQ PUSH2 0x185 JUMPI PUSH1 0x0 DUP1 REVERT JUMPDEST DUP1 PUSH4 0x14525BCE EQ PUSH2 0xA3 JUMPI DUP1 PUSH4 0x2AD71573 EQ PUSH2 0xBF JUMPI DUP1 PUSH4 0x2DBDDB41 EQ PUSH2 0xC8 JUMPI DUP1 PUSH4 0x571A26A0 EQ PUSH2 0xDB JUMPI DUP1 PUSH4 0x5E62BE25 EQ PUSH2 0x104 JUMPI JUMPDEST PUSH1 0x0 DUP1 REVERT JUMPDEST PUSH2 0xAC PUSH2 0x3E8 DUP2 JUMP JUMPDEST PUSH1 0x40 MLOAD SWAP1 DUP2 MSTORE PUSH1 0x20 ADD JUMPDEST PUSH1 0x40 MLOAD DUP1 SWAP2 SUB SWAP1 RETURN JUMPDEST PUSH2 0xAC PUSH1 0x3 SLOAD DUP2 JUMP JUMPDEST PUSH2 0xAC PUSH2 0xD6 CALLDATASIZE PUSH1 0x4 PUSH2 0xACE JUMP JUMPDEST PUSH2 0x198 JUMP JUMPDEST PUSH2 0xEE PUSH2 0xE9 CALLDATASIZE PUSH1 0x4 PUSH2 0xB95 JUMP JUMPDEST PUSH2 0x323 JUMP JUMPDEST PUSH1 0x40 MLOAD PUSH2 0xB6 SWAP11 SWAP10 SWAP9 SWAP8 SWAP7 SWAP6 SWAP5 SWAP4 SWAP3 SWAP2 SWAP1 PUSH2 0xBF4 JUMP JUMPDEST PUSH2 0x117 PUSH2 0x112 CALLDATASIZE PUSH1 0x4 PUSH2 0xC63 JUMP JUMPDEST PUSH2 0x414 JUMP JUMPDEST STOP JUMPDEST PUSH2 0xAC PUSH2 0x127 CALLDATASIZE PUSH1 0x4 PUSH2 0xB95 JUMP JUMPDEST PUSH2 0x704 JUMP JUMPDEST PUSH2 0x117 PUSH2 0x13A CALLDATASIZE PUSH1 0x4 PUSH2 0xB95 JUMP JUMPDEST PUSH2 0x750 JUMP JUMPDEST PUSH2 0xAC PUSH2 0x14D CALLDATASIZE PUSH1 0x4 PUSH2 0xB95 JUMP JUMPDEST PUSH2 0x8C0 JUMP JUMPDEST PUSH2 0x165 PUSH2 0x160 CALLDATASIZE PUSH1 0x4 PUSH2 0xB95 JUMP JUMPDEST PUSH2 0x925 JUMP JUMPDEST PUSH1 0x40 DUP1 MLOAD SWAP5 DUP6 MSTORE PUSH1 0x20 DUP6 ADD SWAP4 SWAP1 SWAP4 MSTORE SWAP2 DUP4 ADD MSTORE PUSH1 0x60 DUP3 ADD MSTORE PUSH1 0x80 ADD PUSH2 0xB6 JUMP JUMPDEST PUSH2 0xAC PUSH2 0x193 CALLDATASIZE PUSH1 0x4 PUSH2 0xC8F JUMP JUMPDEST PUSH2 0x981 JUMP JUMPDEST PUSH1 0x0 PUSH2 0x1A2 PUSH2 0x9C6 JUMP JUMPDEST PUSH1 0x3 DUP1 SLOAD SWAP1 PUSH1 0x0 PUSH2 0x1B2 DUP4 PUSH2 0xCCE JUMP JUMPDEST SWAP1 SWAP2 SSTORE POP TIMESTAMP SWAP1 POP PUSH1 0x0 PUSH2 0x1C5 DUP6 DUP4 PUSH2 0xCE7 JUMP JUMPDEST PUSH1 0x40 DUP1 MLOAD PUSH2 0x140 DUP2 ADD DUP3 MSTORE CALLER DUP2 MSTORE PUSH1 0x20 DUP1 DUP3 ADD DUP11 DUP2 MSTORE DUP3 DUP5 ADD DUP10 SWAP1 MSTORE PUSH1 0x60 DUP4 ADD DUP6 SWAP1 MSTORE PUSH1 0x0 PUSH1 0x80 DUP5 ADD DUP2 SWAP1 MSTORE PUSH1 0xA0 DUP5 ADD DUP2 SWAP1 MSTORE PUSH1 0x1 PUSH1 0xC0 DUP6 ADD DUP2 SWAP1 MSTORE PUSH1 0xE0 DUP6 ADD DUP10 SWAP1 MSTORE PUSH2 0x100 DUP6 ADD DUP3 SWAP1 MSTORE PUSH2 0x120 DUP6 ADD DUP3 SWAP1 MSTORE PUSH1 0x3 SLOAD DUP3 MSTORE PUSH1 0x2 SWAP1 SWAP4 MSTORE SWAP4 SWAP1 SWAP4 KECCAK256 DUP3 MLOAD DUP2 SLOAD PUSH1 0x1 PUSH1 0x1 PUSH1 0xA0 SHL SUB NOT AND PUSH1 0x1 PUSH1 0x1 PUSH1 0xA0 SHL SUB SWAP1 SWAP2 AND OR DUP2 SSTORE SWAP3 MLOAD SWAP4 SWAP5 POP SWAP1 SWAP3 SWAP1 DUP3 ADD SWAP1 PUSH2 0x257 SWAP1 DUP3 PUSH2 0xD89 JUMP JUMPDEST POP PUSH1 0x40 DUP3 DUP2 ADD MLOAD PUSH1 0x2 DUP4 ADD SSTORE PUSH1 0x60 DUP4 ADD MLOAD PUSH1 0x3 DUP1 DUP5 ADD SWAP2 SWAP1 SWAP2 SSTORE PUSH1 0x80 DUP5 ADD MLOAD PUSH1 0x4 DUP5 ADD SSTORE PUSH1 0xA0 DUP5 ADD MLOAD PUSH1 0x5 DUP5 ADD DUP1 SLOAD PUSH1 0xC0 DUP8 ADD MLOAD ISZERO ISZERO PUSH1 0x1 PUSH1 0xA0 SHL MUL PUSH1 0x1 PUSH1 0x1 PUSH1 0xA8 SHL SUB NOT SWAP1 SWAP2 AND PUSH1 0x1 PUSH1 0x1 PUSH1 0xA0 SHL SUB SWAP1 SWAP4 AND SWAP3 SWAP1 SWAP3 OR SWAP2 SWAP1 SWAP2 OR SWAP1 SSTORE PUSH1 0xE0 DUP5 ADD MLOAD PUSH1 0x6 DUP5 ADD SSTORE PUSH2 0x100 DUP5 ADD MLOAD PUSH1 0x7 DUP5 ADD SSTORE PUSH2 0x120 SWAP1 SWAP4 ADD MLOAD PUSH1 0x8 SWAP1 SWAP3 ADD SWAP2 SWAP1 SWAP2 SSTORE SWAP1 SLOAD SWAP1 MLOAD PUSH32 0x5BF34ED94988E5DCDC7D1FAAA54EB1D3B55F45D5F11457E235AFB21A8EBBE73C SWAP1 PUSH2 0x30E SWAP1 DUP10 SWAP1 DUP6 SWAP1 DUP10 SWAP1 PUSH2 0xE48 JUMP JUMPDEST PUSH1 0x40 MLOAD DUP1 SWAP2 SUB SWAP1 LOG2 POP POP PUSH1 0x3 SLOAD SWAP5 SWAP4 POP POP POP POP JUMP JUMPDEST PUSH1 0x2 PUSH1 0x20 MSTORE PUSH1 0x0 SWAP1 DUP2 MSTORE PUSH1 0x40 SWAP1 KECCAK256 DUP1 SLOAD PUSH1 0x1 DUP3 ADD DUP1 SLOAD PUSH1 0x1 PUSH1 0x1 PUSH1 0xA0 SHL SUB SWAP1 SWAP3 AND SWAP3 SWAP2 PUSH2 0x34F SWAP1 PUSH2 0xD00 JUMP JUMPDEST DUP1 PUSH1 0x1F ADD PUSH1 0x20 DUP1 SWAP2 DIV MUL PUSH1 0x20 ADD PUSH1 0x40 MLOAD SWAP1 DUP2 ADD PUSH1 0x40 MSTORE DUP1 SWAP3 SWAP2 SWAP1 DUP2 DUP2 MSTORE PUSH1 0x20 ADD DUP3 DUP1 SLOAD PUSH2 0x37B SWAP1 PUSH2 0xD00 JUMP JUMPDEST DUP1 ISZERO PUSH2 0x3C8 JUMPI DUP1 PUSH1 0x1F LT PUSH2 0x39D JUMPI PUSH2 0x100 DUP1 DUP4 SLOAD DIV MUL DUP4 MSTORE SWAP2 PUSH1 0x20 ADD SWAP2 PUSH2 0x3C8 JUMP JUMPDEST DUP3 ADD SWAP2 SWAP1 PUSH1 0x0 MSTORE PUSH1 0x20 PUSH1 0x0 KECCAK256 SWAP1 JUMPDEST DUP2 SLOAD DUP2 MSTORE SWAP1 PUSH1 0x1 ADD SWAP1 PUSH1 0x20 ADD DUP1 DUP4 GT PUSH2 0x3AB JUMPI DUP3 SWAP1 SUB PUSH1 0x1F AND DUP3 ADD SWAP2 JUMPDEST POP POP POP POP PUSH1 0x2 DUP4 ADD SLOAD PUSH1 0x3 DUP5 ADD SLOAD PUSH1 0x4 DUP6 ADD SLOAD PUSH1 0x5 DUP7 ADD SLOAD PUSH1 0x6 DUP8 ADD SLOAD PUSH1 0x7 DUP9 ADD SLOAD PUSH1 0x8 SWAP1 SWAP9 ADD SLOAD SWAP7 SWAP8 SWAP5 SWAP7 SWAP4 SWAP6 POP SWAP2 SWAP4 PUSH1 0x1 PUSH1 0x1 PUSH1 0xA0 SHL SUB DUP3 AND SWAP4 PUSH1 0x1 PUSH1 0xA0 SHL SWAP1 SWAP3 DIV PUSH1 0xFF AND SWAP3 SWAP2 DUP11 JUMP JUMPDEST PUSH2 0x41C PUSH2 0x9C6 JUMP JUMPDEST PUSH1 0x0 DUP4 DUP2 MSTORE PUSH1 0x2 PUSH1 0x20 MSTORE PUSH1 0x40 SWAP1 KECCAK256 PUSH1 0x5 DUP2 ADD SLOAD PUSH1 0x1 PUSH1 0xA0 SHL SWAP1 DIV PUSH1 0xFF AND PUSH2 0x482 JUMPI PUSH1 0x40 MLOAD PUSH3 0x461BCD PUSH1 0xE5 SHL DUP2 MSTORE PUSH1 0x20 PUSH1 0x4 DUP3 ADD MSTORE PUSH1 0x15 PUSH1 0x24 DUP3 ADD MSTORE PUSH21 0x105D58DD1A5BDB88185B1C9958591E48195B991959 PUSH1 0x5A SHL PUSH1 0x44 DUP3 ADD MSTORE PUSH1 0x64 ADD JUMPDEST PUSH1 0x40 MLOAD DUP1 SWAP2 SUB SWAP1 REVERT JUMPDEST DUP1 PUSH1 0x3 ADD SLOAD TIMESTAMP LT PUSH2 0x4CC JUMPI PUSH1 0x40 MLOAD PUSH3 0x461BCD PUSH1 0xE5 SHL DUP2 MSTORE PUSH1 0x20 PUSH1 0x4 DUP3 ADD MSTORE PUSH1 0x14 PUSH1 0x24 DUP3 ADD MSTORE PUSH20 0x105D58DD1A5BDB881D1A5B5948195E1C1A5C9959 PUSH1 0x62 SHL PUSH1 0x44 DUP3 ADD MSTORE PUSH1 0x64 ADD PUSH2 0x479 JUMP JUMPDEST DUP1 SLOAD PUSH1 0x1 PUSH1 0x1 PUSH1 0xA0 SHL SUB AND CALLER SUB PUSH2 0x52F JUMPI PUSH1 0x40 MLOAD PUSH3 0x461BCD PUSH1 0xE5 SHL DUP2 MSTORE PUSH1 0x20 PUSH1 0x4 DUP3 ADD MSTORE PUSH1 0x21 PUSH1 0x24 DUP3 ADD MSTORE PUSH32 0x53656C6C65722063616E6E6F7420626964206F6E206F776E2061756374696F6E PUSH1 0x44 DUP3 ADD MSTORE PUSH1 0x17 PUSH1 0xF9 SHL PUSH1 0x64 DUP3 ADD MSTORE PUSH1 0x84 ADD PUSH2 0x479 JUMP JUMPDEST DUP1 PUSH1 0x2 ADD SLOAD DUP4 LT ISZERO PUSH2 0x583 JUMPI PUSH1 0x40 MLOAD PUSH3 0x461BCD PUSH1 0xE5 SHL DUP2 MSTORE PUSH1 0x20 PUSH1 0x4 DUP3 ADD MSTORE PUSH1 0x17 PUSH1 0x24 DUP3 ADD MSTORE PUSH32 0x4269642062656C6F77206D696E696D756D207072696365000000000000000000 PUSH1 0x44 DUP3 ADD MSTORE PUSH1 0x64 ADD PUSH2 0x479 JUMP JUMPDEST CALLER PUSH1 0x0 SWAP1 DUP2 MSTORE PUSH1 0x20 DUP2 SWAP1 MSTORE PUSH1 0x40 SWAP1 KECCAK256 SLOAD DUP4 GT ISZERO PUSH2 0x5D9 JUMPI PUSH1 0x40 MLOAD PUSH3 0x461BCD PUSH1 0xE5 SHL DUP2 MSTORE PUSH1 0x20 PUSH1 0x4 DUP3 ADD MSTORE PUSH1 0x14 PUSH1 0x24 DUP3 ADD MSTORE PUSH20 0x496E73756666696369656E742062616C616E6365 PUSH1 0x60 SHL PUSH1 0x44 DUP3 ADD MSTORE PUSH1 0x64 ADD PUSH2 0x479 JUMP JUMPDEST PUSH1 0x5 DUP2 ADD SLOAD PUSH1 0x1 PUSH1 0x1 PUSH1 0xA0 SHL SUB AND PUSH2 0x5FB JUMPI PUSH2 0x5F6 DUP2 DUP5 DUP5 PUSH2 0x9D1 JUMP JUMPDEST PUSH2 0x6C3 JUMP JUMPDEST DUP1 PUSH1 0x4 ADD SLOAD DUP4 GT ISZERO PUSH2 0x612 JUMPI PUSH2 0x5F6 DUP2 DUP5 DUP5 PUSH2 0x9D1 JUMP JUMPDEST DUP1 PUSH1 0x4 ADD SLOAD DUP4 SUB PUSH2 0x67B JUMPI DUP1 PUSH1 0x7 ADD SLOAD DUP3 LT PUSH2 0x670 JUMPI PUSH1 0x40 MLOAD PUSH3 0x461BCD PUSH1 0xE5 SHL DUP2 MSTORE PUSH1 0x20 PUSH1 0x4 DUP3 ADD MSTORE PUSH1 0x18 PUSH1 0x24 DUP3 ADD MSTORE PUSH32 0x426964206C6F7365732074696D65207469652D627265616B0000000000000000 PUSH1 0x44 DUP3 ADD MSTORE PUSH1 0x64 ADD PUSH2 0x479 JUMP JUMPDEST PUSH2 0x5F6 DUP2 DUP5 DUP5 PUSH2 0x9D1 JUMP JUMPDEST PUSH1 0x40 MLOAD PUSH3 0x461BCD PUSH1 0xE5 SHL DUP2 MSTORE PUSH1 0x20 PUSH1 0x4 DUP3 ADD MSTORE PUSH1 0x19 PUSH1 0x24 DUP3 ADD MSTORE PUSH32 0x4269642062656C6F772063757272656E74206869676865737400000000000000 PUSH1 0x44 DUP3 ADD MSTORE PUSH1 0x64 ADD PUSH2 0x479 JUMP JUMPDEST PUSH1 0x40 DUP1 MLOAD DUP5 DUP2 MSTORE PUSH1 0x20 DUP2 ADD DUP5 SWAP1 MSTORE DUP6 SWAP2 PUSH32 0x89571710D252C0223F504495E5D86D92B91DFC3EA2EF941F3FC7866A726CD043 SWAP2 ADD PUSH1 0x40 MLOAD DUP1 SWAP2 SUB SWAP1 LOG2 POP POP POP POP JUMP JUMPDEST PUSH1 0x0 DUP2 DUP2 MSTORE PUSH1 0x2 PUSH1 0x20 MSTORE PUSH1 0x40 DUP2 KECCAK256 PUSH1 0x6 DUP2 ADD SLOAD DUP3 SUB PUSH2 0x735 JUMPI PUSH1 0x40 MLOAD PUSH3 0x461BCD PUSH1 0xE5 SHL DUP2 MSTORE PUSH1 0x4 ADD PUSH2 0x479 SWAP1 PUSH2 0xE6D JUMP JUMPDEST DUP1 PUSH1 0x6 ADD SLOAD DUP2 PUSH1 0x3 ADD SLOAD PUSH2 0x749 SWAP2 SWAP1 PUSH2 0xE9D JUMP JUMPDEST SWAP4 SWAP3 POP POP POP JUMP JUMPDEST PUSH1 0x0 DUP2 DUP2 MSTORE PUSH1 0x2 PUSH1 0x20 MSTORE PUSH1 0x40 SWAP1 KECCAK256 DUP1 SLOAD PUSH1 0x1 PUSH1 0x1 PUSH1 0xA0 SHL SUB AND CALLER EQ PUSH2 0x7C5 JUMPI PUSH1 0x40 MLOAD PUSH3 0x461BCD PUSH1 0xE5 SHL DUP2 MSTORE PUSH1 0x20 PUSH1 0x4 DUP3 ADD MSTORE PUSH1 0x25 PUSH1 0x24 DUP3 ADD MSTORE PUSH32 0x4F6E6C79207468652073656C6C65722063616E20636C6F736520746865206175 PUSH1 0x44 DUP3 ADD MSTORE PUSH5 0x31BA34B7B7 PUSH1 0xD9 SHL PUSH1 0x64 DUP3 ADD MSTORE PUSH1 0x84 ADD PUSH2 0x479 JUMP JUMPDEST PUSH1 0x5 DUP2 ADD SLOAD PUSH1 0x1 PUSH1 0xA0 SHL SWAP1 DIV PUSH1 0xFF AND PUSH2 0x819 JUMPI PUSH1 0x40 MLOAD PUSH3 0x461BCD PUSH1 0xE5 SHL DUP2 MSTORE PUSH1 0x20 PUSH1 0x4 DUP3 ADD MSTORE PUSH1 0x16 PUSH1 0x24 DUP3 ADD MSTORE PUSH22 0x105D58DD1A5BDB88185B1C9958591E4818DB1BDCD959 PUSH1 0x52 SHL PUSH1 0x44 DUP3 ADD MSTORE PUSH1 0x64 ADD PUSH2 0x479 JUMP JUMPDEST PUSH1 0x5 DUP2 ADD DUP1 SLOAD PUSH1 0xFF PUSH1 0xA0 SHL NOT AND SWAP1 SSTORE TIMESTAMP PUSH1 0x8 DUP3 ADD SSTORE PUSH1 0x4 DUP2 ADD SLOAD ISZERO PUSH2 0x86C JUMPI PUSH1 0x4 DUP2 ADD SLOAD DUP2 SLOAD PUSH1 0x1 PUSH1 0x1 PUSH1 0xA0 SHL SUB AND PUSH1 0x0 SWAP1 DUP2 MSTORE PUSH1 0x20 DUP2 SWAP1 MSTORE PUSH1 0x40 DUP2 KECCAK256 DUP1 SLOAD SWAP1 SWAP2 SWAP1 PUSH2 0x866 SWAP1 DUP5 SWAP1 PUSH2 0xCE7 JUMP JUMPDEST SWAP1 SWAP2 SSTORE POP POP JUMPDEST PUSH1 0x5 DUP2 ADD SLOAD PUSH1 0x4 DUP3 ADD SLOAD PUSH1 0x40 DUP1 MLOAD PUSH1 0x1 PUSH1 0x1 PUSH1 0xA0 SHL SUB SWAP1 SWAP4 AND DUP4 MSTORE PUSH1 0x20 DUP4 ADD SWAP2 SWAP1 SWAP2 MSTORE DUP4 SWAP2 PUSH32 0xD2AA34A4FDBBC6DFF6A3E56F46E0F3AE2A31D7785FF3487AA5C95C642ACEA501 SWAP2 ADD PUSH1 0x40 MLOAD DUP1 SWAP2 SUB SWAP1 LOG2 POP POP JUMP JUMPDEST PUSH1 0x0 DUP2 DUP2 MSTORE PUSH1 0x2 PUSH1 0x20 MSTORE PUSH1 0x40 DUP2 KECCAK256 PUSH1 0x6 DUP2 ADD SLOAD DUP3 SUB PUSH2 0x8F1 JUMPI PUSH1 0x40 MLOAD PUSH3 0x461BCD PUSH1 0xE5 SHL DUP2 MSTORE PUSH1 0x4 ADD PUSH2 0x479 SWAP1 PUSH2 0xE6D JUMP JUMPDEST PUSH1 0x0 DUP2 PUSH1 0x8 ADD SLOAD PUSH1 0x0 SUB PUSH2 0x905 JUMPI TIMESTAMP PUSH2 0x90B JUMP JUMPDEST DUP2 PUSH1 0x8 ADD SLOAD JUMPDEST SWAP1 POP DUP2 PUSH1 0x6 ADD SLOAD DUP2 PUSH2 0x91D SWAP2 SWAP1 PUSH2 0xE9D JUMP JUMPDEST SWAP5 SWAP4 POP POP POP POP JUMP JUMPDEST PUSH1 0x0 DUP2 DUP2 MSTORE PUSH1 0x2 PUSH1 0x20 MSTORE PUSH1 0x40 DUP2 KECCAK256 PUSH1 0x6 DUP2 ADD SLOAD DUP3 SWAP2 DUP3 SWAP2 DUP3 SWAP2 SWAP1 DUP3 SUB PUSH2 0x95D JUMPI PUSH1 0x40 MLOAD PUSH3 0x461BCD PUSH1 0xE5 SHL DUP2 MSTORE PUSH1 0x4 ADD PUSH2 0x479 SWAP1 PUSH2 0xE6D JUMP JUMPDEST DUP1 PUSH1 0x6 ADD SLOAD DUP2 PUSH1 0x3 ADD SLOAD DUP3 PUSH1 0x7 ADD SLOAD DUP4 PUSH1 0x8 ADD SLOAD SWAP5 POP SWAP5 POP SWAP5 POP SWAP5 POP POP SWAP2 SWAP4 POP SWAP2 SWAP4 JUMP JUMPDEST PUSH1 0x1 PUSH1 0x1 PUSH1 0xA0 SHL SUB DUP2 AND PUSH1 0x0 SWAP1 DUP2 MSTORE PUSH1 0x1 PUSH1 0x20 MSTORE PUSH1 0x40 DUP2 KECCAK256 SLOAD PUSH1 0xFF AND PUSH2 0x9AA JUMPI POP PUSH2 0x3E8 SWAP2 SWAP1 POP JUMP JUMPDEST POP PUSH1 0x1 PUSH1 0x1 PUSH1 0xA0 SHL SUB AND PUSH1 0x0 SWAP1 DUP2 MSTORE PUSH1 0x20 DUP2 SWAP1 MSTORE PUSH1 0x40 SWAP1 KECCAK256 SLOAD SWAP1 JUMP JUMPDEST PUSH2 0x9CF CALLER PUSH2 0xA63 JUMP JUMPDEST JUMP JUMPDEST PUSH1 0x5 DUP4 ADD SLOAD PUSH1 0x1 PUSH1 0x1 PUSH1 0xA0 SHL SUB AND ISZERO PUSH2 0xA1B JUMPI PUSH1 0x4 DUP4 ADD SLOAD PUSH1 0x5 DUP5 ADD SLOAD PUSH1 0x1 PUSH1 0x1 PUSH1 0xA0 SHL SUB AND PUSH1 0x0 SWAP1 DUP2 MSTORE PUSH1 0x20 DUP2 SWAP1 MSTORE PUSH1 0x40 DUP2 KECCAK256 DUP1 SLOAD SWAP1 SWAP2 SWAP1 PUSH2 0xA15 SWAP1 DUP5 SWAP1 PUSH2 0xCE7 JUMP JUMPDEST SWAP1 SWAP2 SSTORE POP POP JUMPDEST CALLER PUSH1 0x0 SWAP1 DUP2 MSTORE PUSH1 0x20 DUP2 SWAP1 MSTORE PUSH1 0x40 DUP2 KECCAK256 DUP1 SLOAD DUP5 SWAP3 SWAP1 PUSH2 0xA3A SWAP1 DUP5 SWAP1 PUSH2 0xE9D JUMP JUMPDEST SWAP1 SWAP2 SSTORE POP POP PUSH1 0x4 DUP4 ADD SWAP2 SWAP1 SWAP2 SSTORE PUSH1 0x5 DUP3 ADD DUP1 SLOAD PUSH1 0x1 PUSH1 0x1 PUSH1 0xA0 SHL SUB NOT AND CALLER OR SWAP1 SSTORE PUSH1 0x7 SWAP1 SWAP2 ADD SSTORE JUMP JUMPDEST PUSH1 0x1 PUSH1 0x1 PUSH1 0xA0 SHL SUB DUP2 AND PUSH1 0x0 SWAP1 DUP2 MSTORE PUSH1 0x1 PUSH1 0x20 MSTORE PUSH1 0x40 SWAP1 KECCAK256 SLOAD PUSH1 0xFF AND PUSH2 0xAB5 JUMPI PUSH1 0x1 PUSH1 0x1 PUSH1 0xA0 SHL SUB DUP2 AND PUSH1 0x0 SWAP1 DUP2 MSTORE PUSH1 0x1 PUSH1 0x20 DUP2 DUP2 MSTORE PUSH1 0x40 DUP1 DUP5 KECCAK256 DUP1 SLOAD PUSH1 0xFF NOT AND SWAP1 SWAP4 OR SWAP1 SWAP3 SSTORE DUP3 SWAP1 MSTORE SWAP1 KECCAK256 PUSH2 0x3E8 SWAP1 SSTORE JUMPDEST POP JUMP JUMPDEST PUSH4 0x4E487B71 PUSH1 0xE0 SHL PUSH1 0x0 MSTORE PUSH1 0x41 PUSH1 0x4 MSTORE PUSH1 0x24 PUSH1 0x0 REVERT JUMPDEST PUSH1 0x0 DUP1 PUSH1 0x0 PUSH1 0x60 DUP5 DUP7 SUB SLT ISZERO PUSH2 0xAE3 JUMPI PUSH1 0x0 DUP1 REVERT JUMPDEST DUP4 CALLDATALOAD PUSH8 0xFFFFFFFFFFFFFFFF DUP2 GT ISZERO PUSH2 0xAFA JUMPI PUSH1 0x0 DUP1 REVERT JUMPDEST DUP5 ADD PUSH1 0x1F DUP2 ADD DUP7 SGT PUSH2 0xB0B JUMPI PUSH1 0x0 DUP1 REVERT JUMPDEST DUP1 CALLDATALOAD PUSH8 0xFFFFFFFFFFFFFFFF DUP2 GT ISZERO PUSH2 0xB25 JUMPI PUSH2 0xB25 PUSH2 0xAB8 JUMP JUMPDEST PUSH1 0x40 MLOAD PUSH1 0x1F DUP3 ADD PUSH1 0x1F NOT SWAP1 DUP2 AND PUSH1 0x3F ADD AND DUP2 ADD PUSH8 0xFFFFFFFFFFFFFFFF DUP2 GT DUP3 DUP3 LT OR ISZERO PUSH2 0xB54 JUMPI PUSH2 0xB54 PUSH2 0xAB8 JUMP JUMPDEST PUSH1 0x40 MSTORE DUP2 DUP2 MSTORE DUP3 DUP3 ADD PUSH1 0x20 ADD DUP9 LT ISZERO PUSH2 0xB6C JUMPI PUSH1 0x0 DUP1 REVERT JUMPDEST DUP2 PUSH1 0x20 DUP5 ADD PUSH1 0x20 DUP4 ADD CALLDATACOPY PUSH1 0x0 PUSH1 0x20 SWAP3 DUP3 ADD DUP4 ADD MSTORE SWAP8 SWAP1 DUP7 ADD CALLDATALOAD SWAP7 POP PUSH1 0x40 SWAP1 SWAP6 ADD CALLDATALOAD SWAP5 SWAP4 POP POP POP POP JUMP JUMPDEST PUSH1 0x0 PUSH1 0x20 DUP3 DUP5 SUB SLT ISZERO PUSH2 0xBA7 JUMPI PUSH1 0x0 DUP1 REVERT JUMPDEST POP CALLDATALOAD SWAP2 SWAP1 POP JUMP JUMPDEST PUSH1 0x0 DUP2 MLOAD DUP1 DUP5 MSTORE PUSH1 0x0 JUMPDEST DUP2 DUP2 LT ISZERO PUSH2 0xBD4 JUMPI PUSH1 0x20 DUP2 DUP6 ADD DUP2 ADD MLOAD DUP7 DUP4 ADD DUP3 ADD MSTORE ADD PUSH2 0xBB8 JUMP JUMPDEST POP PUSH1 0x0 PUSH1 0x20 DUP3 DUP7 ADD ADD MSTORE PUSH1 0x20 PUSH1 0x1F NOT PUSH1 0x1F DUP4 ADD AND DUP6 ADD ADD SWAP2 POP POP SWAP3 SWAP2 POP POP JUMP JUMPDEST PUSH1 0x1 PUSH1 0x1 PUSH1 0xA0 SHL SUB DUP12 AND DUP2 MSTORE PUSH2 0x140 PUSH1 0x20 DUP3 ADD DUP2 SWAP1 MSTORE PUSH1 0x0 SWAP1 PUSH2 0xC19 SWAP1 DUP4 ADD DUP13 PUSH2 0xBAE JUMP JUMPDEST PUSH1 0x40 DUP4 ADD SWAP11 SWAP1 SWAP11 MSTORE POP PUSH1 0x60 DUP2 ADD SWAP8 SWAP1 SWAP8 MSTORE PUSH1 0x80 DUP8 ADD SWAP6 SWAP1 SWAP6 MSTORE PUSH1 0x1 PUSH1 0x1 PUSH1 0xA0 SHL SUB SWAP4 SWAP1 SWAP4 AND PUSH1 0xA0 DUP7 ADD MSTORE SWAP1 ISZERO ISZERO PUSH1 0xC0 DUP6 ADD MSTORE PUSH1 0xE0 DUP5 ADD MSTORE PUSH2 0x100 DUP4 ADD MSTORE PUSH2 0x120 SWAP1 SWAP2 ADD MSTORE SWAP3 SWAP2 POP POP JUMP JUMPDEST PUSH1 0x0 DUP1 PUSH1 0x0 PUSH1 0x60 DUP5 DUP7 SUB SLT ISZERO PUSH2 0xC78 JUMPI PUSH1 0x0 DUP1 REVERT JUMPDEST POP POP DUP2 CALLDATALOAD SWAP4 PUSH1 0x20 DUP4 ADD CALLDATALOAD SWAP4 POP PUSH1 0x40 SWAP1 SWAP3 ADD CALLDATALOAD SWAP2 SWAP1 POP JUMP JUMPDEST PUSH1 0x0 PUSH1 0x20 DUP3 DUP5 SUB SLT ISZERO PUSH2 0xCA1 JUMPI PUSH1 0x0 DUP1 REVERT JUMPDEST DUP2 CALLDATALOAD PUSH1 0x1 PUSH1 0x1 PUSH1 0xA0 SHL SUB DUP2 AND DUP2 EQ PUSH2 0x749 JUMPI PUSH1 0x0 DUP1 REVERT JUMPDEST PUSH4 0x4E487B71 PUSH1 0xE0 SHL PUSH1 0x0 MSTORE PUSH1 0x11 PUSH1 0x4 MSTORE PUSH1 0x24 PUSH1 0x0 REVERT JUMPDEST PUSH1 0x0 PUSH1 0x1 DUP3 ADD PUSH2 0xCE0 JUMPI PUSH2 0xCE0 PUSH2 0xCB8 JUMP JUMPDEST POP PUSH1 0x1 ADD SWAP1 JUMP JUMPDEST DUP1 DUP3 ADD DUP1 DUP3 GT ISZERO PUSH2 0xCFA JUMPI PUSH2 0xCFA PUSH2 0xCB8 JUMP JUMPDEST SWAP3 SWAP2 POP POP JUMP JUMPDEST PUSH1 0x1 DUP2 DUP2 SHR SWAP1 DUP3 AND DUP1 PUSH2 0xD14 JUMPI PUSH1 0x7F DUP3 AND SWAP2 POP JUMPDEST PUSH1 0x20 DUP3 LT DUP2 SUB PUSH2 0xD34 JUMPI PUSH4 0x4E487B71 PUSH1 0xE0 SHL PUSH1 0x0 MSTORE PUSH1 0x22 PUSH1 0x4 MSTORE PUSH1 0x24 PUSH1 0x0 REVERT JUMPDEST POP SWAP2 SWAP1 POP JUMP JUMPDEST PUSH1 0x1F DUP3 GT ISZERO PUSH2 0xD84 JUMPI DUP1 PUSH1 0x0 MSTORE PUSH1 0x20 PUSH1 0x0 KECCAK256 PUSH1 0x1F DUP5 ADD PUSH1 0x5 SHR DUP2 ADD PUSH1 0x20 DUP6 LT ISZERO PUSH2 0xD61 JUMPI POP DUP1 JUMPDEST PUSH1 0x1F DUP5 ADD PUSH1 0x5 SHR DUP3 ADD SWAP2 POP JUMPDEST DUP2 DUP2 LT ISZERO PUSH2 0xD81 JUMPI PUSH1 0x0 DUP2 SSTORE PUSH1 0x1 ADD PUSH2 0xD6D JUMP JUMPDEST POP POP JUMPDEST POP POP POP JUMP JUMPDEST DUP2 MLOAD PUSH8 0xFFFFFFFFFFFFFFFF DUP2 GT ISZERO PUSH2 0xDA3 JUMPI PUSH2 0xDA3 PUSH2 0xAB8 JUMP JUMPDEST PUSH2 0xDB7 DUP2 PUSH2 0xDB1 DUP5 SLOAD PUSH2 0xD00 JUMP JUMPDEST DUP5 PUSH2 0xD3A JUMP JUMPDEST PUSH1 0x20 PUSH1 0x1F DUP3 GT PUSH1 0x1 DUP2 EQ PUSH2 0xDEB JUMPI PUSH1 0x0 DUP4 ISZERO PUSH2 0xDD3 JUMPI POP DUP5 DUP3 ADD MLOAD JUMPDEST PUSH1 0x0 NOT PUSH1 0x3 DUP6 SWAP1 SHL SHR NOT AND PUSH1 0x1 DUP5 SWAP1 SHL OR DUP5 SSTORE PUSH2 0xD81 JUMP JUMPDEST PUSH1 0x0 DUP5 DUP2 MSTORE PUSH1 0x20 DUP2 KECCAK256 PUSH1 0x1F NOT DUP6 AND SWAP2 JUMPDEST DUP3 DUP2 LT ISZERO PUSH2 0xE1B JUMPI DUP8 DUP6 ADD MLOAD DUP3 SSTORE PUSH1 0x20 SWAP5 DUP6 ADD SWAP5 PUSH1 0x1 SWAP1 SWAP3 ADD SWAP2 ADD PUSH2 0xDFB JUMP JUMPDEST POP DUP5 DUP3 LT ISZERO PUSH2 0xE39 JUMPI DUP7 DUP5 ADD MLOAD PUSH1 0x0 NOT PUSH1 0x3 DUP8 SWAP1 SHL PUSH1 0xF8 AND SHR NOT AND DUP2 SSTORE JUMPDEST POP POP POP POP PUSH1 0x1 SWAP1 DUP2 SHL ADD SWAP1 SSTORE POP JUMP JUMPDEST PUSH1 0x60 DUP2 MSTORE PUSH1 0x0 PUSH2 0xE5B PUSH1 0x60 DUP4 ADD DUP7 PUSH2 0xBAE JUMP JUMPDEST PUSH1 0x20 DUP4 ADD SWAP5 SWAP1 SWAP5 MSTORE POP PUSH1 0x40 ADD MSTORE SWAP2 SWAP1 POP JUMP JUMPDEST PUSH1 0x20 DUP1 DUP3 MSTORE PUSH1 0x16 SWAP1 DUP3 ADD MSTORE PUSH22 0x105D58DD1A5BDB88191BD95CC81B9BDD08195E1A5CDD PUSH1 0x52 SHL PUSH1 0x40 DUP3 ADD MSTORE PUSH1 0x60 ADD SWAP1 JUMP JUMPDEST DUP2 DUP2 SUB DUP2 DUP2 GT ISZERO PUSH2 0xCFA JUMPI PUSH2 0xCFA PUSH2 0xCB8 JUMP INVALID LOG2 PUSH5 0x6970667358 0x22 SLT KECCAK256 JUMPDEST 0xB2 DUP15 PUSH20 0x5DFC17C5BA4137186F1494529DCB1EE0569681 0x1F CREATE 0xA7 SWAP9 BYTE BLOCKHASH INVALID CREATE PUSH5 0x736F6C6343 STOP ADDMOD 0x1E STOP CALLER ","sha1":"686eae21bf63e7dc73d44e1d23054602ce972278","source":"// SPDX-License-Identifier: MIT\npragma solidity ^0.8.10;\n\nimport \"../interfaces/IAuction.sol\";\nimport \"./Balances.sol\";\n\ncontract Auction is IAuction, Balances {\n\n    struct AuctionInfo {\n        address seller;\n        string description;\n        uint256 minBid;\n        uint256 closeDate;\n        uint256 highestBid;\n        address highestBidder;\n        bool active;\n        uint256 createdAt;\n        uint256 highestBidTimestamp;\n        uint256 endedAt;\n    }\n\n    mapping(uint256 => AuctionInfo) public auctions;\n    uint256 public auctionCount;\n\n    event AuctionCreated(\n        uint256 indexed auctionId,\n        string description,\n        uint256 closeDate,\n        uint256 minBid\n    );\n\n    event NewBid(\n        uint256 indexed auctionId,\n        uint256 amount,\n        uint256 bidTimestamp\n    );\n\n    event AuctionEnded(\n        uint256 indexed auctionId,\n        address winner,\n        uint256 amount\n    );\n\n    // -------------------------------------------------------------------------\n    // CREATE AUCTION\n    // -------------------------------------------------------------------------\n    function createAuction(\n        string memory _desc,\n        uint256 _duration,\n        uint256 _minBid\n    )\n        external\n        override\n        returns (uint256)\n    {\n        initUser();\n\n        auctionCount++;\n\n        uint256 nowTs = block.timestamp;\n        uint256 closingTime = nowTs + _duration;\n\n        auctions[auctionCount] = AuctionInfo({\n            seller: msg.sender,\n            description: _desc,\n            minBid: _minBid,\n            closeDate: closingTime,\n            highestBid: 0,\n            highestBidder: address(0),\n            active: true,\n            createdAt: nowTs,\n            highestBidTimestamp: 0,\n            endedAt: 0\n        });\n\n        emit AuctionCreated(auctionCount, _desc, closingTime, _minBid);\n        return auctionCount;\n    }\n\n    // -------------------------------------------------------------------------\n    // INTERNAL: APPLY NEW HIGHEST BID (USED ALSO IN TIE-BREAK)\n    // -------------------------------------------------------------------------\n\n    function _applyNewHighestBid(\n        AuctionInfo storage auction,\n        uint256 bidAmount,\n        uint256 tsaTimestamp\n    ) internal {\n        // Refund the previous highest bidder if exists\n        if (auction.highestBidder != address(0)) {\n            balances[auction.highestBidder] += auction.highestBid;\n        }\n\n        // Charge the new bidder\n        balances[msg.sender] -= bidAmount;\n\n        // Update auction state\n        auction.highestBid = bidAmount;\n        auction.highestBidder = msg.sender;\n        auction.highestBidTimestamp = tsaTimestamp;\n    }\n\n    // -------------------------------------------------------------------------\n    // PLACE BID (VALUE + TSA TIMESTAMP FOR TIE-BREAK)\n    // -------------------------------------------------------------------------\n\n    function placeBid(\n        uint256 auctionId,\n        uint256 bidAmount,\n        uint256 tsaTimestamp\n    )\n        external\n        override\n    {\n        initUser();\n\n        AuctionInfo storage auction = auctions[auctionId];\n\n        // 1. Auction validations\n        require(auction.active, \"Auction already ended\");\n        require(block.timestamp < auction.closeDate, \"Auction time expired\");\n        require(msg.sender != auction.seller, \"Seller cannot bid on own auction.\");\n\n        // 2. Bid validations\n        require(bidAmount >= auction.minBid, \"Bid below minimum price\");\n        require(balances[msg.sender] >= bidAmount, \"Insufficient balance\");\n\n        if (auction.highestBidder == address(0)) {\n            _applyNewHighestBid(auction, bidAmount, tsaTimestamp);\n        } else {\n\n            if (bidAmount > auction.highestBid) {\n\n                _applyNewHighestBid(auction, bidAmount, tsaTimestamp);\n            } else if (bidAmount == auction.highestBid) {\n\n                require(\n                    tsaTimestamp < auction.highestBidTimestamp,\n                    \"Bid loses time tie-break\"\n                );\n                _applyNewHighestBid(auction, bidAmount, tsaTimestamp);\n            } else {\n                revert(\"Bid below current highest\");\n            }\n        }\n\n        emit NewBid(auctionId, bidAmount, tsaTimestamp);\n    }\n\n\n    function endAuction(uint256 auctionId) external override {\n        AuctionInfo storage auction = auctions[auctionId];\n\n        require(msg.sender == auction.seller, \"Only the seller can close the auction\");\n        require(auction.active, \"Auction already closed\");\n\n        auction.active = false;\n        auction.endedAt = block.timestamp;\n\n        if (auction.highestBid > 0) {\n            balances[auction.seller] += auction.highestBid;\n        }\n\n        emit AuctionEnded(auctionId, auction.highestBidder, auction.highestBid);\n    }\n\n\n    function getAuctionDuration(uint256 auctionId) external view returns (uint256) {\n        AuctionInfo storage auction = auctions[auctionId];\n        require(auction.createdAt != 0, \"Auction does not exist\");\n        return auction.closeDate - auction.createdAt;\n    }\n\n    function getRealAuctionDuration(uint256 auctionId) external view returns (uint256) {\n        AuctionInfo storage auction = auctions[auctionId];\n        require(auction.createdAt != 0, \"Auction does not exist\");\n\n        uint256 endTs = auction.endedAt != 0 ? auction.endedAt : block.timestamp;\n        return endTs - auction.createdAt;\n    }\n\n\n    function getAuctionTimes(\n        uint256 auctionId\n    )\n        external\n        view\n        returns (\n            uint256 createdAt,\n            uint256 closeDate,\n            uint256 highestBidTimestamp,\n            uint256 endedAt\n        )\n    {\n        AuctionInfo storage auction = auctions[auctionId];\n        require(auction.createdAt != 0, \"Auction does not exist\");\n\n        return (\n            auction.createdAt,\n            auction.closeDate,\n            auction.highestBidTimestamp,\n            auction.endedAt\n        );\n    }\n}\n","sourcePath":"contracts/Auction.sol","type":"contract","deployment":{"address":"0x32827C616b884801B77833dedC4f747e11Ea74FD","chainid":"5777","blockHeight":1}}